{
  "contractName": "RahatERC20",
  "abi": [
    {
      "inputs": [
        {
          "internalType": "string",
          "name": "_name",
          "type": "string"
        },
        {
          "internalType": "string",
          "name": "_symbol",
          "type": "string"
        },
        {
          "internalType": "address",
          "name": "_admin",
          "type": "address"
        }
      ],
      "stateMutability": "nonpayable",
      "type": "constructor"
    },
    {
      "anonymous": false,
      "inputs": [
        {
          "indexed": true,
          "internalType": "address",
          "name": "owner",
          "type": "address"
        },
        {
          "indexed": true,
          "internalType": "address",
          "name": "spender",
          "type": "address"
        },
        {
          "indexed": false,
          "internalType": "uint256",
          "name": "value",
          "type": "uint256"
        }
      ],
      "name": "Approval",
      "type": "event"
    },
    {
      "anonymous": false,
      "inputs": [
        {
          "indexed": false,
          "internalType": "uint256",
          "name": "id",
          "type": "uint256"
        }
      ],
      "name": "Snapshot",
      "type": "event"
    },
    {
      "anonymous": false,
      "inputs": [
        {
          "indexed": true,
          "internalType": "address",
          "name": "from",
          "type": "address"
        },
        {
          "indexed": true,
          "internalType": "address",
          "name": "to",
          "type": "address"
        },
        {
          "indexed": false,
          "internalType": "uint256",
          "name": "value",
          "type": "uint256"
        }
      ],
      "name": "Transfer",
      "type": "event"
    },
    {
      "inputs": [
        {
          "internalType": "address",
          "name": "owner",
          "type": "address"
        },
        {
          "internalType": "address",
          "name": "spender",
          "type": "address"
        }
      ],
      "name": "allowance",
      "outputs": [
        {
          "internalType": "uint256",
          "name": "",
          "type": "uint256"
        }
      ],
      "stateMutability": "view",
      "type": "function"
    },
    {
      "inputs": [
        {
          "internalType": "address",
          "name": "spender",
          "type": "address"
        },
        {
          "internalType": "uint256",
          "name": "amount",
          "type": "uint256"
        }
      ],
      "name": "approve",
      "outputs": [
        {
          "internalType": "bool",
          "name": "",
          "type": "bool"
        }
      ],
      "stateMutability": "nonpayable",
      "type": "function"
    },
    {
      "inputs": [
        {
          "internalType": "address",
          "name": "account",
          "type": "address"
        }
      ],
      "name": "balanceOf",
      "outputs": [
        {
          "internalType": "uint256",
          "name": "",
          "type": "uint256"
        }
      ],
      "stateMutability": "view",
      "type": "function"
    },
    {
      "inputs": [
        {
          "internalType": "address",
          "name": "account",
          "type": "address"
        },
        {
          "internalType": "uint256",
          "name": "snapshotId",
          "type": "uint256"
        }
      ],
      "name": "balanceOfAt",
      "outputs": [
        {
          "internalType": "uint256",
          "name": "",
          "type": "uint256"
        }
      ],
      "stateMutability": "view",
      "type": "function"
    },
    {
      "inputs": [
        {
          "internalType": "uint256",
          "name": "amount",
          "type": "uint256"
        }
      ],
      "name": "burn",
      "outputs": [],
      "stateMutability": "nonpayable",
      "type": "function"
    },
    {
      "inputs": [
        {
          "internalType": "address",
          "name": "account",
          "type": "address"
        },
        {
          "internalType": "uint256",
          "name": "amount",
          "type": "uint256"
        }
      ],
      "name": "burnFrom",
      "outputs": [],
      "stateMutability": "nonpayable",
      "type": "function"
    },
    {
      "inputs": [],
      "name": "decimals",
      "outputs": [
        {
          "internalType": "uint8",
          "name": "",
          "type": "uint8"
        }
      ],
      "stateMutability": "view",
      "type": "function"
    },
    {
      "inputs": [
        {
          "internalType": "address",
          "name": "spender",
          "type": "address"
        },
        {
          "internalType": "uint256",
          "name": "subtractedValue",
          "type": "uint256"
        }
      ],
      "name": "decreaseAllowance",
      "outputs": [
        {
          "internalType": "bool",
          "name": "",
          "type": "bool"
        }
      ],
      "stateMutability": "nonpayable",
      "type": "function"
    },
    {
      "inputs": [
        {
          "internalType": "address",
          "name": "spender",
          "type": "address"
        },
        {
          "internalType": "uint256",
          "name": "addedValue",
          "type": "uint256"
        }
      ],
      "name": "increaseAllowance",
      "outputs": [
        {
          "internalType": "bool",
          "name": "",
          "type": "bool"
        }
      ],
      "stateMutability": "nonpayable",
      "type": "function"
    },
    {
      "inputs": [],
      "name": "name",
      "outputs": [
        {
          "internalType": "string",
          "name": "",
          "type": "string"
        }
      ],
      "stateMutability": "view",
      "type": "function"
    },
    {
      "inputs": [
        {
          "internalType": "address",
          "name": "",
          "type": "address"
        }
      ],
      "name": "owner",
      "outputs": [
        {
          "internalType": "bool",
          "name": "",
          "type": "bool"
        }
      ],
      "stateMutability": "view",
      "type": "function"
    },
    {
      "inputs": [],
      "name": "symbol",
      "outputs": [
        {
          "internalType": "string",
          "name": "",
          "type": "string"
        }
      ],
      "stateMutability": "view",
      "type": "function"
    },
    {
      "inputs": [],
      "name": "totalSupply",
      "outputs": [
        {
          "internalType": "uint256",
          "name": "",
          "type": "uint256"
        }
      ],
      "stateMutability": "view",
      "type": "function"
    },
    {
      "inputs": [
        {
          "internalType": "uint256",
          "name": "snapshotId",
          "type": "uint256"
        }
      ],
      "name": "totalSupplyAt",
      "outputs": [
        {
          "internalType": "uint256",
          "name": "",
          "type": "uint256"
        }
      ],
      "stateMutability": "view",
      "type": "function"
    },
    {
      "inputs": [
        {
          "internalType": "address",
          "name": "recipient",
          "type": "address"
        },
        {
          "internalType": "uint256",
          "name": "amount",
          "type": "uint256"
        }
      ],
      "name": "transfer",
      "outputs": [
        {
          "internalType": "bool",
          "name": "",
          "type": "bool"
        }
      ],
      "stateMutability": "nonpayable",
      "type": "function"
    },
    {
      "inputs": [
        {
          "internalType": "address",
          "name": "sender",
          "type": "address"
        },
        {
          "internalType": "address",
          "name": "recipient",
          "type": "address"
        },
        {
          "internalType": "uint256",
          "name": "amount",
          "type": "uint256"
        }
      ],
      "name": "transferFrom",
      "outputs": [
        {
          "internalType": "bool",
          "name": "",
          "type": "bool"
        }
      ],
      "stateMutability": "nonpayable",
      "type": "function"
    },
    {
      "inputs": [
        {
          "internalType": "address",
          "name": "_address",
          "type": "address"
        },
        {
          "internalType": "uint256",
          "name": "_amount",
          "type": "uint256"
        }
      ],
      "name": "mintERC20",
      "outputs": [
        {
          "internalType": "uint256",
          "name": "",
          "type": "uint256"
        }
      ],
      "stateMutability": "nonpayable",
      "type": "function"
    },
    {
      "inputs": [
        {
          "internalType": "address",
          "name": "_account",
          "type": "address"
        }
      ],
      "name": "addOwner",
      "outputs": [],
      "stateMutability": "nonpayable",
      "type": "function"
    }
  ],
  "bytecode": "0x60806040523480156200001157600080fd5b506040516200171738038062001717833981016040819052620000349162000491565b8251839083906200004d90600390602085019062000334565b5080516200006390600490602084019062000334565b5050336000818152600960205260408082208054600160ff1991821681179092556001600160a01b03871684529190922080549091169091179055620000ad9150612710620000b6565b505050620005d2565b6001600160a01b038216620001115760405162461bcd60e51b815260206004820152601f60248201527f45524332303a206d696e7420746f20746865207a65726f206164647265737300604482015260640160405180910390fd5b6200011f60008383620001ac565b80600260008282546200013391906200051e565b90915550506001600160a01b03821660009081526020819052604081208054839290620001629084906200051e565b90915550506040518181526001600160a01b038316906000907fddf252ad1be2c89b69c2b068fc378daa952ba7f163c4a11628f55a4df523b3ef9060200160405180910390a35050565b620001c4838383620001c960201b620006911760201c565b505050565b620001e1838383620001c460201b6200056d1760201c565b6001600160a01b0383166200020557620001fb8262000230565b620001c462000268565b6001600160a01b0382166200021f57620001fb8362000230565b6200022a8362000230565b620001c4825b6001600160a01b038116600090815260056020908152604080832091839052909120546200026591906200027a565b6200027a565b50565b6200027860066200025f60025490565b565b600062000286620002c9565b9050806200029484620002e7565b1015620001c4578254600180820185556000858152602080822090930193909355938401805494850181558252902090910155565b6000620002e260086200033060201b620006d91760201c565b905090565b8054600090620002f957506000919050565b815482906200030b9060019062000539565b815481106200031e576200031e620005a6565b90600052602060002001549050919050565b5490565b828054620003429062000553565b90600052602060002090601f016020900481019282620003665760008555620003b1565b82601f106200038157805160ff1916838001178555620003b1565b82800160010185558215620003b1579182015b82811115620003b157825182559160200191906001019062000394565b50620003bf929150620003c3565b5090565b5b80821115620003bf5760008155600101620003c4565b600082601f830112620003ec57600080fd5b81516001600160401b0380821115620004095762000409620005bc565b604051601f8301601f19908116603f01168101908282118183101715620004345762000434620005bc565b816040528381526020925086838588010111156200045157600080fd5b600091505b8382101562000475578582018301518183018401529082019062000456565b83821115620004875760008385830101525b9695505050505050565b600080600060608486031215620004a757600080fd5b83516001600160401b0380821115620004bf57600080fd5b620004cd87838801620003da565b94506020860151915080821115620004e457600080fd5b50620004f386828701620003da565b604086015190935090506001600160a01b03811681146200051357600080fd5b809150509250925092565b6000821982111562000534576200053462000590565b500190565b6000828210156200054e576200054e62000590565b500390565b600181811c908216806200056857607f821691505b602082108114156200058a57634e487b7160e01b600052602260045260246000fd5b50919050565b634e487b7160e01b600052601160045260246000fd5b634e487b7160e01b600052603260045260246000fd5b634e487b7160e01b600052604160045260246000fd5b61113580620005e26000396000f3fe608060405234801561001057600080fd5b50600436106100f65760003560e01c80637065cb48116100925780637065cb48146101ce57806370a08231146101e157806379cc6790146101f45780637c4ca9cc1461020757806395d89b411461021a578063981b24d014610222578063a457c2d714610235578063a9059cbb14610248578063dd62ed3e1461025b57600080fd5b806306fdde03146100fb578063095ea7b31461011957806318160ddd1461013c57806323b872dd1461014e578063313ce56714610161578063395093511461017057806342966c68146101835780634ee2cd7e14610198578063666e1b39146101ab575b600080fd5b610103610294565b6040516101109190610f91565b60405180910390f35b61012c610127366004610f4e565b610326565b6040519015158152602001610110565b6002545b604051908152602001610110565b61012c61015c366004610f12565b61033d565b60405160128152602001610110565b61012c61017e366004610f4e565b6103ec565b610196610191366004610f78565b610428565b005b6101406101a6366004610f4e565b610435565b61012c6101b9366004610ec4565b60096020526000908152604090205460ff1681565b6101966101dc366004610ec4565b61047e565b6101406101ef366004610ec4565b6104d1565b610196610202366004610f4e565b6104ec565b610140610215366004610f4e565b610572565b6101036105b1565b610140610230366004610f78565b6105c0565b61012c610243366004610f4e565b6105eb565b61012c610256366004610f4e565b610684565b610140610269366004610edf565b6001600160a01b03918216600090815260016020908152604080832093909416825291909152205490565b6060600380546102a39061107e565b80601f01602080910402602001604051908101604052809291908181526020018280546102cf9061107e565b801561031c5780601f106102f15761010080835404028352916020019161031c565b820191906000526020600020905b8154815290600101906020018083116102ff57829003601f168201915b5050505050905090565b60006103333384846106dd565b5060015b92915050565b600061034a848484610801565b6001600160a01b0384166000908152600160209081526040808320338452909152902054828110156103d45760405162461bcd60e51b815260206004820152602860248201527f45524332303a207472616e7366657220616d6f756e74206578636565647320616044820152676c6c6f77616e636560c01b60648201526084015b60405180910390fd5b6103e185338584036106dd565b506001949350505050565b3360008181526001602090815260408083206001600160a01b0387168452909152812054909161033391859061042390869061102d565b6106dd565b61043233826109c9565b50565b6001600160a01b03821660009081526005602052604081208190819061045c908590610b11565b91509150816104735761046e856104d1565b610475565b805b95945050505050565b3260009081526009602052604090205460ff166104ad5760405162461bcd60e51b81526004016103cb90610fe6565b6001600160a01b03166000908152600960205260409020805460ff19166001179055565b6001600160a01b031660009081526020819052604090205490565b60006104f88333610269565b9050818110156105565760405162461bcd60e51b8152602060048201526024808201527f45524332303a206275726e20616d6f756e74206578636565647320616c6c6f77604482015263616e636560e01b60648201526084016103cb565b61056383338484036106dd565b61056d83836109c9565b505050565b3260009081526009602052604081205460ff166105a15760405162461bcd60e51b81526004016103cb90610fe6565b6105ab8383610c08565b50919050565b6060600480546102a39061107e565b60008060006105d0846006610b11565b91509150816105e1576002546105e3565b805b949350505050565b3360009081526001602090815260408083206001600160a01b03861684529091528120548281101561066d5760405162461bcd60e51b815260206004820152602560248201527f45524332303a2064656372656173656420616c6c6f77616e63652062656c6f77604482015264207a65726f60d81b60648201526084016103cb565b61067a33858584036106dd565b5060019392505050565b6000610333338484610801565b6001600160a01b0383166106b0576106a882610ce1565b61056d610d0b565b6001600160a01b0382166106c7576106a883610ce1565b6106d083610ce1565b61056d82610ce1565b5490565b6001600160a01b03831661073f5760405162461bcd60e51b8152602060048201526024808201527f45524332303a20617070726f76652066726f6d20746865207a65726f206164646044820152637265737360e01b60648201526084016103cb565b6001600160a01b0382166107a05760405162461bcd60e51b815260206004820152602260248201527f45524332303a20617070726f766520746f20746865207a65726f206164647265604482015261737360f01b60648201526084016103cb565b6001600160a01b0383811660008181526001602090815260408083209487168084529482529182902085905590518481527f8c5be1e5ebec7d5bd14f71427d1e84f3dd0314c0f7b2291e5b200ac8c7c3b925910160405180910390a3505050565b6001600160a01b0383166108655760405162461bcd60e51b815260206004820152602560248201527f45524332303a207472616e736665722066726f6d20746865207a65726f206164604482015264647265737360d81b60648201526084016103cb565b6001600160a01b0382166108c75760405162461bcd60e51b815260206004820152602360248201527f45524332303a207472616e7366657220746f20746865207a65726f206164647260448201526265737360e81b60648201526084016103cb565b6108d2838383610d1b565b6001600160a01b0383166000908152602081905260409020548181101561094a5760405162461bcd60e51b815260206004820152602660248201527f45524332303a207472616e7366657220616d6f756e7420657863656564732062604482015265616c616e636560d01b60648201526084016103cb565b6001600160a01b0380851660009081526020819052604080822085850390559185168152908120805484929061098190849061102d565b92505081905550826001600160a01b0316846001600160a01b03166000805160206110e0833981519152846040516109bb91815260200190565b60405180910390a350505050565b6001600160a01b038216610a295760405162461bcd60e51b815260206004820152602160248201527f45524332303a206275726e2066726f6d20746865207a65726f206164647265736044820152607360f81b60648201526084016103cb565b610a3582600083610d1b565b6001600160a01b03821660009081526020819052604090205481811015610aa95760405162461bcd60e51b815260206004820152602260248201527f45524332303a206275726e20616d6f756e7420657863656564732062616c616e604482015261636560f01b60648201526084016103cb565b6001600160a01b0383166000908152602081905260408120838303905560028054849290610ad8908490611067565b90915550506040518281526000906001600160a01b038516906000805160206110e08339815191529060200160405180910390a3505050565b60008060008411610b5d5760405162461bcd60e51b815260206004820152601660248201527504552433230536e617073686f743a20696420697320360541b60448201526064016103cb565b610b65610d26565b841115610bb45760405162461bcd60e51b815260206004820152601d60248201527f4552433230536e617073686f743a206e6f6e6578697374656e7420696400000060448201526064016103cb565b6000610bc08486610d36565b8454909150811415610bd9576000809250925050610c01565b6001846001018281548110610bf057610bf06110c9565b906000526020600020015492509250505b9250929050565b6001600160a01b038216610c5e5760405162461bcd60e51b815260206004820152601f60248201527f45524332303a206d696e7420746f20746865207a65726f20616464726573730060448201526064016103cb565b610c6a60008383610d1b565b8060026000828254610c7c919061102d565b90915550506001600160a01b03821660009081526020819052604081208054839290610ca990849061102d565b90915550506040518181526001600160a01b038316906000906000805160206110e08339815191529060200160405180910390a35050565b6001600160a01b038116600090815260056020526040902061043290610d06836104d1565b610df9565b610d196006610d0660025490565b565b61056d838383610691565b6000610d3160085490565b905090565b8154600090610d4757506000610337565b82546000905b80821015610da3576000610d618383610e43565b905084868281548110610d7657610d766110c9565b90600052602060002001541115610d8f57809150610d9d565b610d9a81600161102d565b92505b50610d4d565b600082118015610dd857508385610dbb600185611067565b81548110610dcb57610dcb6110c9565b9060005260206000200154145b15610df157610de8600183611067565b92505050610337565b509050610337565b6000610e03610d26565b905080610e0f84610e65565b101561056d578254600180820185556000858152602080822090930193909355938401805494850181558252902090910155565b6000610e526002848418611045565b610e5e9084841661102d565b9392505050565b8054600090610e7657506000919050565b81548290610e8690600190611067565b81548110610e9657610e966110c9565b90600052602060002001549050919050565b919050565b80356001600160a01b0381168114610ea857600080fd5b600060208284031215610ed657600080fd5b610e5e82610ead565b60008060408385031215610ef257600080fd5b610efb83610ead565b9150610f0960208401610ead565b90509250929050565b600080600060608486031215610f2757600080fd5b610f3084610ead565b9250610f3e60208501610ead565b9150604084013590509250925092565b60008060408385031215610f6157600080fd5b610f6a83610ead565b946020939093013593505050565b600060208284031215610f8a57600080fd5b5035919050565b600060208083528351808285015260005b81811015610fbe57858101830151858201604001528201610fa2565b81811115610fd0576000604083870101525b50601f01601f1916929092016040019392505050565b60208082526027908201527f4f6e6c792041646d696e2063616e20657865637574652074686973207472616e60408201526639b0b1ba34b7b760c91b606082015260800190565b60008219821115611040576110406110b3565b500190565b60008261106257634e487b7160e01b600052601260045260246000fd5b500490565b600082821015611079576110796110b3565b500390565b600181811c9082168061109257607f821691505b602082108114156105ab57634e487b7160e01b600052602260045260246000fd5b634e487b7160e01b600052601160045260246000fd5b634e487b7160e01b600052603260045260246000fdfeddf252ad1be2c89b69c2b068fc378daa952ba7f163c4a11628f55a4df523b3efa26469706673582212201e1b5e9623fdbbbe58506deeb6d7df4bd9d2ff61883fea7c3d0de1adafef5e3d64736f6c63430008070033",
  "immutableReferences": {},
  "source": "//SPDX-License-Identifier: LGPL-3.0\r\npragma solidity 0.8.7;\r\n\r\n//ERC20 Tokens\r\nimport \"@openzeppelin/contracts/token/ERC20/extensions/ERC20Snapshot.sol\";\r\nimport \"@openzeppelin/contracts/token/ERC20/extensions/ERC20Burnable.sol\";\r\n\r\n//Utils\r\nimport \"@openzeppelin/contracts/access/AccessControl.sol\";\r\n\r\ncontract RahatERC20 is ERC20, ERC20Snapshot, ERC20Burnable {\r\n  ///@dev owner of the ERC20 contract\r\n  mapping(address => bool) public owner;\r\n\r\n  modifier OnlyOwner {\r\n    require(owner[tx.origin], \"Only Admin can execute this transaction\");\r\n    _;\r\n  }\r\n\r\n  constructor(\r\n    string memory _name,\r\n    string memory _symbol,\r\n    address _admin\r\n  ) ERC20(_name, _symbol) {\r\n    owner[msg.sender] = true;\r\n    owner[_admin] = true;\r\n    _mint(msg.sender, 10000);\r\n  }\r\n\r\n  ///@dev Mint x amount of ERC20 token to given address\r\n  ///@param _address Address to which ERC20 token will be minted\r\n  ///@param _amount Amount of token to be minted\r\n  function mintERC20(address _address, uint256 _amount)\r\n    public\r\n    OnlyOwner\r\n    returns (uint256)\r\n  {\r\n    _mint(_address, _amount);\r\n    return _amount;\r\n  }\r\n\r\n  function _beforeTokenTransfer(\r\n    address from,\r\n    address to,\r\n    uint256 amount\r\n  ) internal override(ERC20, ERC20Snapshot) {\r\n    super._beforeTokenTransfer(from, to, amount);\r\n  }\r\n\r\n  function addOwner(address _account) public OnlyOwner {\r\n    owner[_account] = true;\r\n  }\r\n}\r\n",
  "sourcePath": "D:\\projects\\g20\\cbdc-contracts\\contracts\\RahatERC20.sol",
  "compiler": {
    "name": "solc",
    "version": "0.8.7+commit.e28d00a7.Emscripten.clang"
  },
  "schemaVersion": "3.4.3",
  "updatedAt": "2022-08-22T06:38:14.357Z",
  "devdoc": {
    "kind": "dev",
    "methods": {
      "allowance(address,address)": {
        "details": "See {IERC20-allowance}."
      },
      "approve(address,uint256)": {
        "details": "See {IERC20-approve}. Requirements: - `spender` cannot be the zero address."
      },
      "balanceOf(address)": {
        "details": "See {IERC20-balanceOf}."
      },
      "balanceOfAt(address,uint256)": {
        "details": "Retrieves the balance of `account` at the time `snapshotId` was created."
      },
      "burn(uint256)": {
        "details": "Destroys `amount` tokens from the caller. See {ERC20-_burn}."
      },
      "burnFrom(address,uint256)": {
        "details": "Destroys `amount` tokens from `account`, deducting from the caller's allowance. See {ERC20-_burn} and {ERC20-allowance}. Requirements: - the caller must have allowance for ``accounts``'s tokens of at least `amount`."
      },
      "decimals()": {
        "details": "Returns the number of decimals used to get its user representation. For example, if `decimals` equals `2`, a balance of `505` tokens should be displayed to a user as `5.05` (`505 / 10 ** 2`). Tokens usually opt for a value of 18, imitating the relationship between Ether and Wei. This is the value {ERC20} uses, unless this function is overridden; NOTE: This information is only used for _display_ purposes: it in no way affects any of the arithmetic of the contract, including {IERC20-balanceOf} and {IERC20-transfer}."
      },
      "decreaseAllowance(address,uint256)": {
        "details": "Atomically decreases the allowance granted to `spender` by the caller. This is an alternative to {approve} that can be used as a mitigation for problems described in {IERC20-approve}. Emits an {Approval} event indicating the updated allowance. Requirements: - `spender` cannot be the zero address. - `spender` must have allowance for the caller of at least `subtractedValue`."
      },
      "increaseAllowance(address,uint256)": {
        "details": "Atomically increases the allowance granted to `spender` by the caller. This is an alternative to {approve} that can be used as a mitigation for problems described in {IERC20-approve}. Emits an {Approval} event indicating the updated allowance. Requirements: - `spender` cannot be the zero address."
      },
      "mintERC20(address,uint256)": {
        "details": "Mint x amount of ERC20 token to given address",
        "params": {
          "_address": "Address to which ERC20 token will be minted",
          "_amount": "Amount of token to be minted"
        }
      },
      "name()": {
        "details": "Returns the name of the token."
      },
      "symbol()": {
        "details": "Returns the symbol of the token, usually a shorter version of the name."
      },
      "totalSupply()": {
        "details": "See {IERC20-totalSupply}."
      },
      "totalSupplyAt(uint256)": {
        "details": "Retrieves the total supply at the time `snapshotId` was created."
      },
      "transfer(address,uint256)": {
        "details": "See {IERC20-transfer}. Requirements: - `recipient` cannot be the zero address. - the caller must have a balance of at least `amount`."
      },
      "transferFrom(address,address,uint256)": {
        "details": "See {IERC20-transferFrom}. Emits an {Approval} event indicating the updated allowance. This is not required by the EIP. See the note at the beginning of {ERC20}. Requirements: - `sender` and `recipient` cannot be the zero address. - `sender` must have a balance of at least `amount`. - the caller must have allowance for ``sender``'s tokens of at least `amount`."
      }
    },
    "stateVariables": {
      "owner": {
        "details": "owner of the ERC20 contract"
      }
    },
    "version": 1
  },
  "userdoc": {
    "kind": "user",
    "methods": {},
    "version": 1
  }
}